:0600000000F035EF00F0F6
:10000800FFFF03829EA20BEF00F00EEF00F0FFFF50
:1000180030EF00F0FFFF014A022AE20E011807E163
:10002800040E0218D8A41BEF00F01EEF00F0FFFF2B
:100038002EEF00F0FFFF000E026E000E016E80A092
:1000480028EF00F02CEF00F0FFFF80802EEF00F08B
:10005800FFFF8090FFFF9E92FFFF03921100FFFFBA
:10006800FFFFA4EF00F0FFFFF28EF28C000E936EFC
:10007800818081868194800E6F6EFFFF800E6E18DE
:10008800D8A449EF00F04CEF00F0FFFF41EF00F07B
:10009800FFFF9BEC00F0200E736E080E6F6EFFFFE3
:1000A800080E6E18D8A45BEF00F05EEF00F0FFFFBB
:1000B80053EF00F0FFFF63EC00F035EF00F0FFFFB7
:1000C800000EE8CF40FFAC0EE8CF41FF000EE8CFAE
:1000D80042FFFFFF040EE8CF45FFAA0EE8CF46FF18
:1000E8005A0EE8CF47FFA50EE8CF48FF550EE8CFD8
:1000F80049FF0FEE40F0EF8686EC00F06DEF00F060
:100108001200FFFFFFFF000E926E000E806ECA8085
:10011800CA82CA9CCA9ACA98CA96FA0ECB6E9D829F
:10012800CA849E92FFFF96EF00F01200FFFFFFFFC8
:10013800800E706EB70E716E430E726E1200FFFF66
:10014800026A016A03900392000137EF00F0FFFF93
:020000040020DA
:08000000FFFFFFFFFFFFFFFF00
:020000040030CA
:04000000FF220F0FBD
:0800060085FF0FC00FE00F4061
:00000001FF
