:0600000000F03BEF00F0F0
:10000800FFFF0382F2A40BEF00F00EEF00F0FFFFFA
:1000180036EF00F0FFFF080ED624D66E000ED7206C
:10002800D76E014A022A200E011807E14E0E021867
:10003800D8A421EF00F024EF00F0FFFF34EF00F028
:10004800FFFF000E026E000E016E80A02EEF00F082
:1000580032EF00F0FFFF808034EF00F0FFFF809068
:10006800FFFFF294FFFF03921100FFFFFFFF5AEF1B
:1000780000F0FFFFD59AD586000ED76E060ED66E15
:10008800F28AF2941200FFFFFFFF000E926E000E3C
:10009800806E3DEC00F0F28E1200FFFFFFFF48EC8F
:1000A80000F0FFFF55EF00F03BEF00F0026A016A35
:0C00B80003900392000152EF00F0FFFFE4
:020000040020DA
:08000000FFFFFFFFFFFFFFFF00
:020000040030CA
:04000000FF220F0FBD
:0800060085FF0FC00FE00F4061
:00000001FF
